:100000000C9463000C948B000C948B000C948B006C
:100010000C948B000C948B000C948B000C94C105F9
:100020000C948B000C948B000C948B000C948B0024
:100030000C948B000C948B000C948B000C948B0014
:100040000C9475060C948B000C9443060C941D06BE
:100050000C948B000C948B000C948B000C948B00F4
:100060000C948B000C948B000000000024002700EF
:100070002A000000000023002600290000000008DC
:10008000000201000003040700000000000000005F
:10009000010204081020408001020408102001021F
:1000A0000408102000000000250028002B00040494
:1000B0000404040404040202020202020303030310
:1000C00003030200BF0611241FBECFEFD8E0DEBF3E
:1000D000CDBF11E0A0E0B1E0E4EBF4E102C0059097
:1000E0000D92A432B107D9F721E0A4E2B1E001C03A
:1000F0001D92AE3FB207E1F710E0C3E6D0E004C0C6
:100100002197FE010E94E209C236D107C9F70E9479
:100110001E070C94580A0C940000CF92DF92EF92C5
:10012000FF920F931F93CF93DF936C017A018B01A2
:10013000C0E0D0E0CE15DF0589F0D8016D918D01CA
:10014000D601ED91FC910190F081E02DC601099559
:10015000892B11F47E0102C02196ECCFC701DF91FB
:10016000CF911F910F91FF90EF90DF90CF90089566
:10017000FC01918D828D981761F0828DDF01A80FAF
:10018000B11D5D968C91928D9F5F9F73928F90E0D1
:1001900008958FEF9FEF0895FC01918D828D981740
:1001A00031F0828DE80FF11D858D90E008958FEF7D
:1001B0009FEF0895FC01918D228D892F90E0805C46
:1001C0009F4F821B91098F739927089583E491E0D3
:1001D0000E94DA0021E0892B09F420E0822F0895A3
:1001E000FC01848DDF01A80FB11DA35ABF4F2C91D4
:1001F000848D90E001968F739927848FA689B789A3
:100200002C93A089B1898C9180648C93938D848D7B
:10021000981306C00288F389E02D80818F7D80834A
:100220000895EF92FF920F931F93CF93DF93EC010A
:1002300081E0888F9B8D8C8D981305C0E889F989A2
:10024000808185FD24C0F62E0B8D10E00F5F1F4FBF
:100250000F731127E02E8C8DE8120CC00FB607FC2F
:10026000FACFE889F989808185FFF5CFCE010E9418
:10027000F000F1CF8B8DFE01E80FF11DE35AFF4F27
:10028000F0820B8FEA89FB898081806207C0EE894A
:10029000FF896083E889F98980818064808381E0B7
:1002A00090E0DF91CF911F910F91FF90EF90089513
:1002B000CF93DF93EC01888D8823C9F0EA89FB890D
:1002C000808185FD05C0A889B9898C9186FD0FC004
:1002D0000FB607FCF5CF808185FFF2CFA889B989D9
:1002E0008C9185FFEDCFCE010E94F000E7CFDF912A
:1002F000CF91089580E090E0892B29F00E94E600DC
:1003000081110C9400000895833081F028F481302D
:1003100099F08230A1F008958730A9F08830B9F0C3
:100320008430D1F4809180008F7D03C08091800063
:100330008F7780938000089584B58F7702C084B54D
:100340008F7D84BD08958091B0008F7703C0809128
:10035000B0008F7D8093B00008951F93CF93DF93FB
:10036000282F30E0F901E458FF4F8491F901E0575C
:10037000FF4FD491F901E255FF4FC491CC23C9F04E
:10038000162F81110E948401EC2FF0E0EE0FFF1F69
:10039000EC55FF4FA591B4918FB7F894111105C09A
:1003A0009C91ED2FE095E92302C0EC91ED2BEC93AD
:1003B0008FBFDF91CF911F91089590910001981305
:1003C00024C0E2ECF0E0E4919FEF90930001E13073
:1003D000B9F098F0E230C9F4909170009D7F90934D
:1003E000700091E09093B0009091B100987F94607C
:1003F0009093B1001092B30008C010926E0005C037
:1004000090916F009D7F90936F0060E00C94AD0120
:10041000CF93DF9390E0FC01E057FF4F2491FC0164
:10042000E255FF4F8491882361F190E0880F991F76
:10043000FC01E859FF4FC591D491FC01EC55FF4FE9
:10044000A591B491611109C09FB7F8948881209556
:1004500082238883EC912E230BC0623061F49FB716
:10046000F8943881822F809583238883EC912E2BFA
:100470002C939FBF06C08FB7F894E8812E2B28835A
:100480008FBFDF91CF9108958F929F92AF92BF92CD
:10049000CF92DF92EF92FF92CF9390910001981745
:1004A00021F09F3F09F0E9C104C0E2ECF0E0C49103
:1004B0007DC080930001E2ECF0E0C491CF3F09F4ED
:1004C000DCC1C13029F1C23009F449C0C1116EC08C
:1004D00014BC15BC94B5926094BD95B5916095BD62
:1004E000282F30E0F901E255FF4FE491F0E0EE0FE4
:1004F000FF1FEC55FF4F45915491509336014093A7
:100500003501F901E057FF4FE491E093340150C009
:1005100010928000109281009091810098609093D9
:10052000810090918100916090938100282F30E0AC
:10053000F901E255FF4FE491F0E0EE0FFF1FEC559B
:10054000FF4F459154915093330140933201F9018B
:10055000E057FF4FE491E0933101C1E029C01092D0
:10056000B0001092B1009091B00092609093B000F2
:100570009091B10091609093B100282F30E0F90183
:10058000E255FF4FE491F0E0EE0FFF1FEC55FF4FF7
:10059000459154915093300140932F01F901E05758
:1005A000FF4FE491E0932E01C2E002C0C7FD65C198
:1005B0004B0161E00E940802A12CB12C8C2F8D7F91
:1005C00009F0A0C060E072E18AE790E0A501940123
:1005D0000E94C30969017A01DA01C9010197A109E1
:1005E000B1098F3F9105A105B10509F008F442C09A
:1005F00060E472E48FE090E0A50194010E94C309D9
:10060000DA01C9010197A109B109C230E1F48F3FB4
:100610009105A105B10509F008F42DC160E970ED5F
:1006200083E090E0A50194010E94C309DA01C901A9
:100630000197A109B1098F3F9105A105B10509F005
:1006400088F523E058C08F3F9105A105B105A1F0C1
:1006500098F068E478EE81E090E0A50194010E94B2
:10066000C309DA01C9010197A109B109CC2309F431
:10067000B6C0F9C021E001C022E0CC2371F03BC03C
:10068000D701C6012AE0B595A795979587952A9534
:10069000D1F70197A109B10925E035B5387F232BA2
:1006A00025BD61C068E478EE81E090E0A501940189
:1006B0000E94C309DA01C9010197A109B1098F3F5D
:1006C0009105A105B10509F008F487C064E274EF53
:1006D00080E090E0A50194010E94C309DA01C901FC
:1006E0000197A109B1098F3F9105A105B10511F04D
:1006F00008F093C025E03091B100387F232B209380
:10070000B1002BC060E072E18AE790E0A50194019E
:100710000E94C309DA01C9010197A109B109009733
:1007200021E0A207B10578F068E478EE81E090E07E
:10073000A50194010E94C309DA01C9010197A10929
:10074000B10933E001C031E0C13039F420918100BA
:10075000287F232B2093810018C0C130B1F0C23014
:1007600049F1C1118AC087BD8FEF9FEFDC018093F3
:100770003F0190934001A0934101B09342018091C9
:100780006E00826080936E0078C0909389008093A1
:1007900088008FEF9FEFDC0180933B0190933C0139
:1007A000A0933D01B0933E0180916F0082608093E1
:1007B0006F0063C08093B3008FEF9FEFDC018093E5
:1007C000370190933801A0933901B0933A01809199
:1007D000700082608093700050C024E08CCF8F3F07
:1007E0009105A105B105B9F0B0F062E17AE780E0CA
:1007F00090E0A50194010E94C309DA01C9010197A3
:10080000A109B1098F3F9105A105B10511F008F0CB
:1008100037CF24E042CF23E040CF62E17AE780E0A7
:1008200090E0A50194010E94C309DA01C901019772
:10083000A109B1098F3F9105A105B10591F088F09B
:10084000D701C6013AE0B595A795979587953A9552
:10085000D1F70197A109B109CC2309F41DCF27E0F5
:100860004ACF26E00ACF8F3F9105A105B10509F0D7
:10087000A0F624E002CF22E03ECFCF91FF90EF9090
:10088000DF90CF90BF90AF909F908F9008953FB72B
:10089000F8948091290190912A01A0912B01B091A7
:1008A0002C0126B5A89B05C02F3F19F00196A11D6C
:1008B000B11D3FBFBA2FA92F982F8827820F911DF6
:1008C000A11DB11DBC01CD0142E0660F771F881F3D
:1008D000991F4A95D1F708958F929F92AF92BF9238
:1008E000CF92DF92EF92FF926B017C010E9447044E
:1008F0004B015C01C114D104E104F104F1F00E9448
:100900004704DC01CB0188199909AA09BB09883E73
:100910009340A105B10570F321E0C21AD108E108A6
:10092000F10888EE880E83E0981EA11CB11CC1144A
:10093000D104E104F10419F7DDCFFF90EF90DF90CF
:10094000CF90BF90AF909F908F90089508958EBDE7
:1009500000000DB407FEFDCF8EB508958CBD9DBD82
:10096000089560EF7AE085E00E94440261E088E04B
:100970000E94AD0164EF71E080E090E00E946C04A1
:1009800085E00E94DD0160E088E00C94AD010F93EA
:100990001F93CF93C82F83E590E00E94AE0400EF31
:1009A00011E060E0F80184850E94AD018C2F8E7704
:1009B00080680E94A70480E00E94A704C82F61E01D
:1009C000F80184850E94AD018C2FCF911F910F916A
:1009D00008950F931F93CF93DF93082F162F83E56E
:1009E00090E00E94AE04C0EFD1E060E08C850E94F0
:1009F000AD01802F8E770E94A704812F0E94A7044B
:100A000061E08C85DF91CF911F910F910C94AD0126
:100A1000EF92FF920F931F93CF93DF9300D0CDB748
:100A2000DEB78CE10E94C704682F6F778CE10E94CB
:100A3000E90460E082E00E94E9046FE788E00E9438
:100A4000E90484E10E94C704682F606884E10E9481
:100A5000E90483E590E00E94AE0460E08091FC012F
:100A60000E94AD0182E10E94A70486E20E94A704D1
:100A700061E08091FC010E94AD0167E08AE10E9483
:100A8000E9046CE082E00E94E9048AE10E94C70464
:100A9000682F60688AE10E94E90400ED17E088E0B1
:100AA0000E94C704982F907331F480FD3EC001501E
:100AB0001109A9F73AC08CE00E94C704F82E83718F
:100AC000F1F584E10E94C704182F833080F5882354
:100AD00021F183E590E00E94AE0460E08091FC018A
:100AE0000E94AD01EE24EA94E10E82E90E94A7047F
:100AF00000E00E1530F482E90E94A704898301E02A
:100B0000F8CF80E00E94A704FE01E00FF11D818371
:100B100061E08091FC010E94AD0188E10E94C70460
:100B20008770F3FE06C092E00BC093E009C094E02A
:100B300007C0123021F4811102C081E005C091E0AC
:100B400081E0923009F080E00F900F90DF91CF911B
:100B50001F910F91FF90EF900895009769F0FC01AD
:100B600001900020E9F73197AF01481B590BBC01F8
:100B700083E491E00C948D0080E090E008950E9461
:100B8000530A1F920F920FB60F9211242F933F9387
:100B90004F935F936F937F938F939F93AF93BF9385
:100BA000EF93FF938091370190913801A091390123
:100BB000B0913A01892B8A2B8B2B51F180912E0118
:100BC000E0912F01F09130019081892780838091FD
:100BD000370190913801A0913901B0913A0118166E
:100BE00019061A061B06C4F480913701909138014A
:100BF000A0913901B0913A010197A109B1098093FF
:100C0000370190933801A0933901B0933A0104C0A1
:100C1000809100010E94DD01FF91EF91BF91AF91A2
:100C20009F918F917F916F915F914F913F912F9104
:100C30000F900FBE0F901F9018951F920F920FB636
:100C40000F9211242F933F934F935F936F937F9352
:100C50008F939F93AF93BF93EF93FF9383E491E0C0
:100C60000E94F000FF91EF91BF91AF919F918F9102
:100C70007F916F915F914F913F912F910F900FBE98
:100C80000F901F9018951F920F920FB60F9211247C
:100C90002F938F939F93EF93FF93E0915301F091E4
:100CA00054018081E0915901F0915A0182FD12C0F6
:100CB000908180915C018F5F8F7320915D0182171D
:100CC00051F0E0915C01F0E0ED5BFE4F958F809379
:100CD0005C0101C08081FF91EF919F918F912F91D5
:100CE0000F900FBE0F901F9018951F920F920FB686
:100CF0000F9211242F933F938F939F93AF93BF93A2
:100D00008091250190912601A0912701B0912801A1
:100D10003091240123E0230F2D3720F40196A11DEB
:100D2000B11D05C026E8230F0296A11DB11D209319
:100D300024018093250190932601A0932701B0936D
:100D400028018091290190912A01A0912B01B09155
:100D50002C010196A11DB11D8093290190932A01B8
:100D6000A0932B01B0932C01BF91AF919F918F91D4
:100D70003F912F910F900FBE0F901F901895E3E4B5
:100D8000F1E01382128288EE93E0A0E0B0E0848369
:100D90009583A683B78385E091E09183808385EC7A
:100DA00090E09587848784EC90E09787868780EC35
:100DB00090E0918B808B81EC90E0938B828B82EC26
:100DC00090E0958B848B86EC90E0978B868B118ED0
:100DD000128E138E148EE0EFF1E08AE0848789E0B2
:100DE000858780E090E0A0EFB2E48093EC019093DF
:100DF000ED01A093EE01B093EF0140E050E062E519
:100E000074E44093E8015093E9016093EA01709320
:100E1000EB0140E050E060E773E44093E40150935D
:100E2000E5016093E6017093E7018093E001909300
:100E3000E101A093E201B093E3010895CF93DF9322
:100E4000CDB7DEB7A5970FB6F894DEBF0FBECDBF06
:100E5000789484B5826084BD84B5816084BD85B595
:100E6000826085BD85B5816085BD80916E008160A1
:100E700080936E0010928100809181008260809347
:100E80008100809181008160809381008091800049
:100E90008160809380008091B10084608093B10074
:100EA0008091B00081608093B00080917A0084606E
:100EB00080937A0080917A00826080937A0080919A
:100EC0007A00816080937A0080917A0080688093B4
:100ED0007A001092C10061E085E00E94080260E0A3
:100EE00086E00E94080261E088E00E94080261E05A
:100EF00084E00E940802E0915301F091540182E0E5
:100F00008083E0914F01F09150011082E0915101F6
:100F1000F09152018FEC808310925B01E0915701B8
:100F2000F091580186E08083E0915501F0915601DF
:100F3000808180618083E0915501F091560180812C
:100F400088608083E0915501F0915601808180682E
:100F50008083E0915501F091560180818F7D8083DF
:100F60001FB7F89480912D01811127C0E8EBF0E0C4
:100F70008491EAE9F0E09491E82FF0E0EE0FFF1F92
:100F8000E859FF4FA591B491EC91E92321F461E078
:100F90008AE00E94AD0161E08AE00E9408028CB5FF
:100FA00080618CBD8CB580648CBD61E08DE00E9459
:100FB000080261E08BE00E94080280912D018F5FA2
:100FC00080932D011FBF61E08091FC010E94080207
:100FD00061E08091FC010E94AD0161E08091FD0122
:100FE0000E9408022091FD0130E0F901E458FF4F12
:100FF0008491F901E057FF4F0491F901E255FF4F49
:101000001491112379F081110E948401E12FF0E005
:10101000EE0FFF1FEE58FF4FA591B491EC91E02326
:1010200009F07BC161E08091FD010E94AD0162E3A6
:1010300070E080E090E00E946C0460E884E50E942B
:10104000E90469EA86E50E94E90463E088E50E9414
:10105000E90468EE8AE50E94E90460E48AE20E94FD
:10106000E9046DE382E20E94E90488E20E94C70479
:10107000982F9370933029F0682F636088E20E9464
:10108000E90461E084E00E94AD0180E3282E85E759
:10109000382E0E940805882309F438C160E084E0F6
:1010A0000E94AD010E94B10464E670E080E090E02F
:1010B0000E946C0461E084E00E94AD010E94B104D2
:1010C00064E670E080E090E00E946C0460E084E000
:1010D0000E94AD010E94B10461E088E00E94AD0170
:1010E00068E873E180E090E00E946C0460E088E0D2
:1010F0000E94AD01C12CD12C00E010E00E94080537
:1011000026010D2C000C660877089FEF491A590A32
:10111000690A790AF12C8823B1F1F1100EC1AFEF01
:10112000CA1ADA0A0E94B10419A2A3019201FE01AF
:10113000B1965F01CA01B9012AE030E040E050E019
:101140000E94A109605DD5016E935D0121153105F5
:101150004105510579F7CD010E94AD0581E191E08E
:101160000E94AD05FF24F394B4E1CB16D1040CF436
:10117000F12C0E9408050E940805EFEF4E1A5E0A46
:101180006E0A7E0AC8CFF110D8C084E191E00E94B7
:10119000AD0581E191E00E94AD056101C01AD10A5F
:1011A000B6010D2C000C880B990B0E94EF094B0126
:1011B0005C018091E8019091E901A091EA01B09170
:1011C000EB018AA39BA3ACA3BDA39C01AD01C50108
:1011D000B4010E944E0A87FD09C06CED75E080E005
:1011E00090E00E946C040053184F22C04090E4012C
:1011F0005090E5016090E6017090E701A301920133
:10120000C501B4010E944E0A87FD15C02AA13BA169
:101210004CA15DA1C501B4010E94E80987FF0BC084
:1012200064EF71E080E090E00E946C0408511C4F74
:101230000E94B10429C0A3019201C501B4010E941A
:10124000E80987FF24C01C141D040CF560EF7AE048
:1012500085E00E94440261E088E00E94AD0168EEF2
:1012600073E080E090E00E946C0485E00E94DD0164
:1012700060E088E00E94AD0164E670E080E090E00C
:101280000E946C040C501E4FC12CD12C37CF64EF40
:1012900071E080E090E00E946C0404E110E00E94A4
:1012A000B10401501109D9F764EF71E080E090E0DA
:1012B0000E946C04FF2021F160EA70E085E00E944A
:1012C000440264EF71E080E090E00E946C0468ECFE
:1012D00070E085E00E94440264EF71E080E090E0FD
:1012E0000E946C0460EF70E085E00E94440260EDB3
:1012F00077E080E090E00E946C0485E00E94DD01D0
:1013000060E177E280E090E00E946C0461E084E0BC
:101310000E94AD010E947A01BCCE6FE082E00E9483
:10132000E90462E370E080E090E00E946C0482E0F7
:101330000E94C70484FDFBCF80CEFF2009F4DECEDF
:10134000B3CFA1E21A2EAA1BBB1BFD010DC0AA1F21
:10135000BB1FEE1FFF1FA217B307E407F50720F01E
:10136000A21BB30BE40BF50B661F771F881F991F99
:101370001A9469F760957095809590959B01AC01E2
:10138000BD01CF010895052E97FB1EF400940E9425
:10139000DA0957FD07D00E94A10907FC03D04EF4DB
:1013A0000C94DA0950954095309521953F4F4F4F59
:1013B0005F4F089590958095709561957F4F8F4F01
:1013C0009F4F0895EE0FFF1F0590F491E02D0994B3
:1013D0000E942A0A08F481E00895E89409C097FB66
:1013E0003EF490958095709561957F4F8F4F9F4FFC
:1013F0009923A9F0F92F96E9BB279395F695879540
:1014000077956795B795F111F8CFFAF4BB0F11F402
:1014100060FF1BC06F5F7F4F8F4F9F4F16C08823A9
:1014200011F096E911C0772321F09EE8872F762FDF
:1014300005C0662371F096E8862F70E060E02AF020
:101440009A95660F771F881FDAF7880F969587950C
:1014500097F90895990F0008550FAA0BE0E8FEEFE1
:1014600016161706E807F907C0F012161306E40768
:10147000F50798F0621B730B840B950B39F40A2661
:1014800061F0232B242B252B21F408950A2609F43F
:10149000A140A6958FEF811D811D08950E942A0A03
:1014A00008F48FEF089581E090E0F8940C94580AC6
:0414B000F894FFCFDE
:1014B400FF0000000011018D00DA00B800CC0058D4
:1014C400010D0A006E6F6465736163746976616E01
:0414D400646F000041
:00000001FF
